:1000000012C12AC129C128C1A5C126C125C17FC1EC
:1000100051C122C121C127C21FC1DAC11DC11CC1EA
:100020001BC11AC119C100C0C101C30302C2C60667
:1000300007C705C5C404CC0C0DCD0FCFCE0E0ACA20
:10004000CB0BC90908C8D81819D91BDBDA1A1EDE70
:10005000DF1FDD1D1CDC14D4D515D71716D6D21220
:1000600013D311D1D010F03031F133F3F23236F630
:10007000F737F53534F43CFCFD3DFF3F3EFEFA3AE0
:100080003BFB39F9F83828E8E929EB2B2AEAEE2E70
:100090002FEF2DEDEC2CE42425E527E7E62622E2E0
:1000A000E323E12120E0A06061A163A3A26266A630
:1000B000A767A56564A46CACAD6DAF6F6EAEAA6AA0
:1000C0006BAB69A9A86878B8B979BB7B7ABABE7EF0
:1000D0007FBF7DBDBC7CB47475B577B7B67672B2A0
:1000E000B373B17170B05090915193535292965630
:1000F0005797559594549C5C5D9D5F9F9E5E5A9A60
:100100009B5B99595898884849894B8B8A4A4E8EEF
:100110008F4F8D4D4C8C448485458747468682425F
:1001200043834181804000C1814001C0804101C0C2
:10013000804100C1814001C0804100C1814000C1B7
:10014000814001C0804101C0804100C1814000C1A7
:10015000814001C0804100C1814001C0804101C097
:10016000804100C1814001C0804100C1814000C187
:10017000814001C0804100C1814001C0804101C077
:10018000804100C1814000C1814001C0804101C067
:10019000804100C1814001C0804100C1814000C157
:1001A000814001C0804101C0804100C1814000C147
:1001B000814001C0804100C1814001C0804101C037
:1001C000804100C1814000C1814001C0804101C027
:1001D000804100C1814001C0804100C1814000C117
:1001E000814001C0804100C1814001C0804101C007
:1001F000804100C1814001C0804100C1814000C1F7
:10020000814001C0804101C0804100C1814000C1E6
:10021000814001C0804100C1814001C0804101C0D6
:10022000804100C1814011241FBECFEDCDBF10E041
:10023000A0E6B0E0EEE1F7E002C005900D92A03735
:10024000B107D9F720E0A0E7B0E001C01D92AE3AB7
:10025000B207E1F702D061C2D3CE12B889E189B901
:100260008AB188698AB983B1866083B98BE190E0ED
:100270009BBD8ABD1FBC95E09EBD12BC1DBC1CBCB5
:1002800089B7806489BF8AEF86BF10BE93BF12BE54
:1002900089B7816089BF8BB780628BBF80B587606B
:1002A00080BD88E187BB80B385E88093990078940E
:1002B0000000FECF1F920F920FB60F9211248F9362
:1002C0009F93EF93FF939091710080917200981328
:1002D00009C08AB1877D8AB9C498109271001092C2
:1002E00072000CC0C49AE091710081E08E0F80937F
:1002F0007100F0E0EB57FF4F80818CB9FF91EF91D7
:100300009F918F910F900FBE0F901F9018951F9285
:100310000F920FB60F9211248F93EF93FF935F9B71
:1003200011C0E0917000E43148F481E08E0F8093B9
:1003300070008CB1F0E0E656FF4F80831DBC1CBC02
:1003400085E08EBDFF91EF918F910F900FBE0F90C2
:100350001F9018951F920F920FB60F9211242F9392
:100360003F934F935F936F937F938F939F93AF933D
:10037000BF93EF93FF938EB58A7F8EBD80917000FF
:100380008823A9F08091810090918200892B09F047
:10039000C39AFDD0882359F01092700010927E000D
:1003A00010927D001092820010928100C398FF91FC
:1003B000EF91BF91AF919F918F917F916F915F91DD
:1003C0004F913F912F910F900FBE0F901F90189556
:1003D0001F920F920FB60F9211242F933F934F93BA
:1003E0005F936F937F938F939F93209181003091C0
:1003F000820080917B0090917C00232B79F421E096
:1004000030E040917400509175008417950714F006
:1004100020E030E0309384002093830090937500B7
:100420008093740080917600909177006CE370E087
:1004300063D124E0969587952A95E1F79093800003
:1004400080937F0010927700109276009F918F9199
:100450007F916F915F914F913F912F910F900FBEC0
:100460000F901F9018951F920F920FB60F921124A4
:100470002F933F934F936F937F938F939F93EF931C
:10048000FF9346B34370E0917300F0E0EE0FFF1F5F
:10049000EE0FFF1FE40FF11DE05AFF4F8081082E81
:1004A000000C990B20917B0030917C00280F391FA4
:1004B00030937C0020937B0060917D0070917E00E2
:1004C000860F971F90937E0080937D00409373006A
:1004D00086B38770813049F48091760090917700DF
:1004E00001969093770080937600C9018150904FD8
:1004F0008F3F9F4110F4232B51F410927C001092F7
:100500007B0081E090E09093820080938100FF91D6
:10051000EF919F918F917F916F914F913F912F918B
:100520000F900FBE0F901F901895DC01680F791F78
:100530009FEF4FEF2D919227292F30E0F901EA5DCF
:10054000FE4F94919427F901EA5DFF4F4491A6175D
:10055000B70781F7892F90E0942B0895CF93DF930D
:10056000C5E8D0E0909199009883806889836A8378
:1005700063E070E0CE01D9DF9C838B8385E08093BC
:1005800072008AB188628AB9DF91CF9108950F9382
:100590001F93CF93DF9360917000683008F4A0C080
:1005A00090919A008091990098139AC000919B00B5
:1005B000043021F0063009F470C094C0C091A1004D
:1005C000D0E0DC2FCC278091A000C82B70E06250D7
:1005D00071098AE990E0A9DFC817D90711F063E033
:1005E00082C040919C0020919D0080919E0090E0EF
:1005F000982F882730919F00832BBC01615071098F
:100600006630710508F06CC0182F110F30919900F9
:1006100030938500009386001093870030E0342BE0
:10062000232B09F05AC00197AC01440F551FFA0162
:10063000E758FF4F20813181FA01EB57FF4F37FF19
:1006400003C031952195310932272327322734837E
:100650002383009741F72091790030917A0081E05F
:1006600090E0232B11F080E090E090937A0080934B
:100670007900C12FD0E02396BE0185E890E055DFD8
:10068000CB57DF4F9983888385E0810F8093720079
:100690008AB188628AB981E02AC0E0919E00F0E0C8
:1006A000FE2FEE2780919F00E82BCF010197069740
:1006B000B8F4EE0FF0E0E656FF4FC581D0E0DC2F36
:1006C000CC278481C82B70E0625071098AE990E0E0
:1006D0002CDFC817D90709F082CF62E084E005C09B
:1006E00060E001C061E080919B0038DF80E0DF9135
:1006F000CF911F910F9108950024552704C0080E33
:10070000591F880F991F009729F076956795B8F3C0
:0E0710007105B9F7802D952F0895F894FFCF4D
:10071E0000FF0100010000FFFF0000010001FF00CB
:00000001FF
