:1000000012C12AC129C128C1A1C126C125C17BC1F4
:100010004DC122C121C116C21FC1D1C11DC11CC108
:100020001BC11AC119C100C0C101C30302C2C60667
:1000300007C705C5C404CC0C0DCD0FCFCE0E0ACA20
:10004000CB0BC90908C8D81819D91BDBDA1A1EDE70
:10005000DF1FDD1D1CDC14D4D515D71716D6D21220
:1000600013D311D1D010F03031F133F3F23236F630
:10007000F737F53534F43CFCFD3DFF3F3EFEFA3AE0
:100080003BFB39F9F83828E8E929EB2B2AEAEE2E70
:100090002FEF2DEDEC2CE42425E527E7E62622E2E0
:1000A000E323E12120E0A06061A163A3A26266A630
:1000B000A767A56564A46CACAD6DAF6F6EAEAA6AA0
:1000C0006BAB69A9A86878B8B979BB7B7ABABE7EF0
:1000D0007FBF7DBDBC7CB47475B577B7B67672B2A0
:1000E000B373B17170B05090915193535292965630
:1000F0005797559594549C5C5D9D5F9F9E5E5A9A60
:100100009B5B99595898884849894B8B8A4A4E8EEF
:100110008F4F8D4D4C8C448485458747468682425F
:1001200043834181804000C1814001C0804101C0C2
:10013000804100C1814001C0804100C1814000C1B7
:10014000814001C0804101C0804100C1814000C1A7
:10015000814001C0804100C1814001C0804101C097
:10016000804100C1814001C0804100C1814000C187
:10017000814001C0804100C1814001C0804101C077
:10018000804100C1814000C1814001C0804101C067
:10019000804100C1814001C0804100C1814000C157
:1001A000814001C0804101C0804100C1814000C147
:1001B000814001C0804100C1814001C0804101C037
:1001C000804100C1814000C1814001C0804101C027
:1001D000804100C1814001C0804100C1814000C117
:1001E000814001C0804100C1814001C0804101C007
:1001F000804100C1814001C0804100C1814000C1F7
:10020000814001C0804101C0804100C1814000C1E6
:10021000814001C0804100C1814001C0804101C0D6
:10022000804100C1814011241FBECFEDCDBF10E041
:10023000A0E6B0E0EAE1F7E002C005900D92A03739
:10024000B107D9F720E0A0E7B0E001C01D92A23BC2
:10025000B207E1F702D05FC2D3CE12B88CE089B901
:100260008AB188698AB983B1866083B98DE090E0EC
:100270009BBD8ABD1FBC95E09EBD12BC1DBC1CBCB5
:1002800089B7806489BF89EF86BF10BE93BF12BE55
:1002900089B7816089BF8BB780628BBF80B587606B
:1002A00080BD88E187BB78940000FECF1F920F923B
:1002B0000FB60F9211248F939F93EF93FF9390911A
:1002C000710080917200981309C08AB1877D8AB944
:1002D000C49810927100109272000CC0C49AE09100
:1002E000710081E08E0F80937100F0E0EE57FF4FB8
:1002F00080818CB9FF91EF919F918F910F900FBEEC
:100300000F901F9018951F920F920FB60F92112405
:100310008F93EF93FF935F9B11C0E0917000E831E2
:1003200048F481E08E0F809370008CB1F0E0E656C7
:10033000FF4F80831DBC1CBC85E08EBDFF91EF91FB
:100340008F910F900FBE0F901F9018951F920F92D4
:100350000FB60F9211242F933F934F935F936F9398
:100360007F938F939F93AF93BF93EF93FF938EB53C
:100370008A7F8EBD80917000882381F080917B0000
:100380008111C39AF1D0882349F010927000109225
:1003900076001092750010927B00C398FF91EF9148
:1003A000BF91AF919F918F917F916F915F914F918D
:1003B0003F912F910F900FBE0F901F9018951F9295
:1003C0000F920FB60F9211242F934F935F936F9359
:1003D0007F938F939F9320917B00809173009091E6
:1003E000740021110BC021E040917D0050917E00EE
:1003F000841795070CF020E020937A0090937E00FC
:1004000080937D0080917F00909180006CE370E08C
:1004100071D125E0969587952A95E1F7909378001C
:10042000809377001092800010927F009F918F91AF
:100430007F916F915F914F912F910F900FBE0F9011
:100440001F9018951F920F920FB60F9211242F93A1
:100450003F934F936F937F938F939F93EF93FF936C
:1004600046B34370E0917C00F0E0EE0FFF1FEE0F0B
:10047000FF1FE40FF11DE05AFF4F8081082E000C92
:10048000990B2091730030917400280F391F30931D
:100490007400209373006091750070917600860F50
:1004A000971F909376008093750040937C0086B3ED
:1004B0008770813049F480917F009091800001968F
:1004C0009093800080937F00C9018150904F8F3FAF
:1004D0009F4110F4232B39F4109274001092730092
:1004E00081E080937B00FF91EF919F918F917F91AD
:1004F0006F914F913F912F910F900FBE0F901F90D2
:100500001895DC01680F791F9FEF4FEF2D9192270F
:10051000292F30E0F901EA5DFE4F94919427F9010B
:10052000EA5DFF4F4491A617B70781F7892F90E046
:10053000942B0895CF93DF93C2E8D0E095E8988399
:10054000806889836A8363E070E0CE01DADF8B83A1
:100550009C83809172008B5F809372008AB1886265
:100560008AB9DF91CF910895EF92FF920F931F9375
:10057000CF93DF9360917000653008F4B3C00091B1
:100580009A00053809F0AEC010919B00143009F0B4
:10059000A6C0C091A100D0E0DC2FCC278091A000A4
:1005A000C82B70E0625071098AE990E0AADFC81791
:1005B000D90709F090C060919C0080919D00209126
:1005C0009E0030E0322F222790919F00292BA90115
:1005D0002115310509F486C090E0962B892B09F08E
:1005E00077C0C22FCC0F0093820010938300C0937A
:1005F0008400609173007091740077FF03C071955F
:1006000061957109A0917500B0917600B7FF03C0A4
:10061000B195A195B109220F331F00E010E04330DE
:100620005105A9F038F44130510571F042305105BF
:10063000E1F007C04530510589F058F046305105CA
:1006400081F080E090E012C0809179000CC0CD0173
:100650000DC0809177009091780008C080917B0058
:1006600002C080917A0090E001C0CB01F801E20F56
:10067000F31FEE57FF4F918382834150510902507F
:1006800011094115510559F69091790081E09111B8
:1006900080E0809379000C2F10E0780183E0E80E71
:1006A000F11CB70182E890E02CDFF701EE57FF4F15
:1006B0008083F801EE57FF4F9483809172008B5F27
:1006C000C80FC09372008AB188628AB981E00BC0FA
:1006D00062E084E006C063E080919B0002C061E0BC
:1006E000812F28DF80E0DF91CF911F910F91FF9044
:1006F000EF9008950024552704C0080E591F880F55
:10070000991F009729F076956795B8F37105B9F7A9
:0A071000802D952F0895F894FFCF77
:10071A0000FF0100010000FFFF0000010001FF00CF
:00000001FF
