:1000000012C12AC129C128C1AEC126C125C188C1DA
:100010005AC122C121C131C21FC1E3C11DC11CC1CE
:100020001BC11AC119C100C0C101C30302C2C60667
:1000300007C705C5C404CC0C0DCD0FCFCE0E0ACA20
:10004000CB0BC90908C8D81819D91BDBDA1A1EDE70
:10005000DF1FDD1D1CDC14D4D515D71716D6D21220
:1000600013D311D1D010F03031F133F3F23236F630
:10007000F737F53534F43CFCFD3DFF3F3EFEFA3AE0
:100080003BFB39F9F83828E8E929EB2B2AEAEE2E70
:100090002FEF2DEDEC2CE42425E527E7E62622E2E0
:1000A000E323E12120E0A06061A163A3A26266A630
:1000B000A767A56564A46CACAD6DAF6F6EAEAA6AA0
:1000C0006BAB69A9A86878B8B979BB7B7ABABE7EF0
:1000D0007FBF7DBDBC7CB47475B577B7B67672B2A0
:1000E000B373B17170B05090915193535292965630
:1000F0005797559594549C5C5D9D5F9F9E5E5A9A60
:100100009B5B99595898884849894B8B8A4A4E8EEF
:100110008F4F8D4D4C8C448485458747468682425F
:1001200043834181804000C1814001C0804101C0C2
:10013000804100C1814001C0804100C1814000C1B7
:10014000814001C0804101C0804100C1814000C1A7
:10015000814001C0804100C1814001C0804101C097
:10016000804100C1814001C0804100C1814000C187
:10017000814001C0804100C1814001C0804101C077
:10018000804100C1814000C1814001C0804101C067
:10019000804100C1814001C0804100C1814000C157
:1001A000814001C0804101C0804100C1814000C147
:1001B000814001C0804100C1814001C0804101C037
:1001C000804100C1814000C1814001C0804101C027
:1001D000804100C1814001C0804100C1814000C117
:1001E000814001C0804100C1814001C0804101C007
:1001F000804100C1814001C0804100C1814000C1F7
:10020000814001C0804101C0804100C1814000C1E6
:10021000814001C0804100C1814001C0804101C0D6
:10022000804100C1814011241FBECFEDCDBF10E041
:10023000A0E6B0E0E8E2F7E002C005900D92A0373A
:10024000B107D9F720E0A0E7B0E001C01D92AE3AB7
:10025000B207E1F702D066C2D3CEA89584B7877FF4
:1002600084BF81B5886181BD8EE081BD12B889E10E
:1002700089B98AB188698AB983B1866083B98BE10B
:1002800090E09BBD8ABD1FBC95E09EBD12BC1DBC0D
:100290001CBC89B7806489BF8AEF86BF10BE93BF3C
:1002A00012BE89B7816089BF8BB780628BBF80B572
:1002B000876080BD88E187BB80B385E88093990023
:1002C00078940000FECF1F920F920FB60F92112468
:1002D0008F939F93EF93FF939091710080917200A1
:1002E000981309C08AB1877D8AB9C49810927100A9
:1002F000109272000CC0C49AE091710081E08E0FE0
:1003000080937100F0E0EB57FF4F80818CB9FF9133
:10031000EF919F918F910F900FBE0F901F901895A6
:100320001F920F920FB60F9211248F93EF93FF93AA
:100330005F9B11C0E0917000E43148F481E08E0FC2
:10034000809370008CB1F0E0E656FF4F80831DBCB7
:100350001CBC85E08EBDFF91EF918F910F900FBE79
:100360000F901F9018951F920F920FB60F921124A5
:100370002F933F934F935F936F937F938F939F93AD
:10038000AF93BF93EF93FF938EB58A7F8EBD80911D
:1003900070008823A9F08091810090918200892BC0
:1003A00009F0C39AFED0882359F010927000109281
:1003B0007E0010927D001092820010928100C398FE
:1003C000FF91EF91BF91AF919F918F917F916F912D
:1003D0005F914F913F912F910F900FBE0F901F9003
:1003E00018951F920F920FB60F9211242F933F93DF
:1003F0004F935F936F937F938F939F93A8952091D3
:1004000081003091820080917B0090917C00232BB1
:1004100079F421E030E04091740050917500841728
:10042000950714F020E030E030938400209383009F
:10043000909375008093740080917600909177007E
:100440006CE370E05ED124E0969587952A95E1F7FC
:100450009093800080937F00109277001092760036
:100460009F918F917F916F915F914F913F912F91CC
:100470000F900FBE0F901F9018951F920F920FB6FE
:100480000F9211242F933F934F936F937F938F93EA
:100490009F93EF93FF9346B34370E0917300F0E0B6
:1004A000EE0FFF1FEE0FFF1FE05AFF4FE40FF11D8D
:1004B0008081082E000C990B20917B0030917C00EC
:1004C000280F391F30937C0020937B0060917D00C2
:1004D00070917E00860F971F90937E0080937D0021
:1004E0004093730086B38770813049F48091760021
:1004F0009091770001969093770080937600C901E0
:100500008150904F8F3F9F4110F4232B51F4109254
:100510007C0010927B0081E090E0909382008093B9
:100520008100FF91EF919F918F917F916F914F91FA
:100530003F912F910F900FBE0F901F901895DC01E7
:10054000680F791F9FEF4FEF2D919227292F30E0F1
:10055000F901EA5DFE4F94919427F901EA5DFF4F9E
:100560004491A617B70781F7892F90E0942B08953F
:10057000CF93DF93C5E8D0E090919900988380688D
:1005800089836A8363E070E0CE01D9DF9C838B832B
:1005900085E0809372008AB188628AB9DF91CF9139
:1005A00008950F931F93CF93DF936091700068308D
:1005B00008F49BC090919A0080919900981395C07F
:1005C000C0919B00C43021F0C63009F46CC08FC0CC
:1005D0000091A0001091A10070E0625071098AE9B9
:1005E00090E0ADDF8017910711F063E081C080914A
:1005F0009E0090919F009827892798279C01215061
:1006000031092630310508F070C020919C003091EE
:100610009D00182F110F4091990040938500C093C1
:10062000860010938700232BD9F5FC01EE0FFF1FE6
:10063000E857FF4F0197DC01AA0FBB1FA758BF4F18
:100640002D913C91329737FF03C0319521953109A7
:1006500032272327322731832083009759F72091AF
:10066000790030917A0081E090E0232B11F080E056
:1006700090E090937A0080937900C12FD0E0239688
:10068000BE0185E890E05BDFCB57DF4F998388831D
:100690001B5F109372008AB188628AB981E02CC016
:1006A00062E084E027C0E0919E00F0919F00FE2769
:1006B000EF27FE27CF0101970697B8F4EE0FF0E081
:1006C000E656FF4FC581D0E0DC2FCC278481C82BB4
:1006D00070E0625071098AE990E031DFC817D907EC
:1006E00009F083CF62E086E005C060E001C061E010
:1006F00080919B003DDF80E0DF91CF911F910F91B2
:1007000008950024552704C0080E591F880F991F0B
:10071000009729F076956795B8F37105B9F7802DA4
:08072000952F0895F894FFCF16
:1007280000FF0100010000FFFF0000010001FF00C1
:00000001FF
