:1000000012C12AC129C128C1A1C126C125C17BC1F4
:100010004DC122C121C119C21FC1CBC11DC11CC10B
:100020001BC11AC119C100C0C101C30302C2C60667
:1000300007C705C5C404CC0C0DCD0FCFCE0E0ACA20
:10004000CB0BC90908C8D81819D91BDBDA1A1EDE70
:10005000DF1FDD1D1CDC14D4D515D71716D6D21220
:1000600013D311D1D010F03031F133F3F23236F630
:10007000F737F53534F43CFCFD3DFF3F3EFEFA3AE0
:100080003BFB39F9F83828E8E929EB2B2AEAEE2E70
:100090002FEF2DEDEC2CE42425E527E7E62622E2E0
:1000A000E323E12120E0A06061A163A3A26266A630
:1000B000A767A56564A46CACAD6DAF6F6EAEAA6AA0
:1000C0006BAB69A9A86878B8B979BB7B7ABABE7EF0
:1000D0007FBF7DBDBC7CB47475B577B7B67672B2A0
:1000E000B373B17170B05090915193535292965630
:1000F0005797559594549C5C5D9D5F9F9E5E5A9A60
:100100009B5B99595898884849894B8B8A4A4E8EEF
:100110008F4F8D4D4C8C448485458747468682425F
:1001200043834181804000C1814001C0804101C0C2
:10013000804100C1814001C0804100C1814000C1B7
:10014000814001C0804101C0804100C1814000C1A7
:10015000814001C0804100C1814001C0804101C097
:10016000804100C1814001C0804100C1814000C187
:10017000814001C0804100C1814001C0804101C077
:10018000804100C1814000C1814001C0804101C067
:10019000804100C1814001C0804100C1814000C157
:1001A000814001C0804101C0804100C1814000C147
:1001B000814001C0804100C1814001C0804101C037
:1001C000804100C1814000C1814001C0804101C027
:1001D000804100C1814001C0804100C1814000C117
:1001E000814001C0804100C1814001C0804101C007
:1001F000804100C1814001C0804100C1814000C1F7
:10020000814001C0804101C0804100C1814000C1E6
:10021000814001C0804100C1814001C0804101C0D6
:10022000804100C1814011241FBECFEDCDBF10E041
:10023000A0E6B0E0EAE5F7E002C005900D92A03735
:10024000B107D9F720E0A0E7B0E001C01D92A23BC2
:10025000B207E1F702D07FC2D3CE12B88CE089B9E1
:100260008AB188698AB983B1866083B98DE090E0EC
:100270009BBD8ABD1FBC95E09EBD12BC1DBC1CBCB5
:1002800089B7806489BF89EF86BF10BE93BF12BE55
:1002900089B7816089BF8BB780628BBF80B587606B
:1002A00080BD88E187BB78940000FECF1F920F923B
:1002B0000FB60F9211248F939F93EF93FF9390911A
:1002C000710080917200981309C08AB1877D8AB944
:1002D000C49810927100109272000CC0C49AE09100
:1002E000710081E08E0F80937100F0E0EE57FF4FB8
:1002F00080818CB9FF91EF919F918F910F900FBEEC
:100300000F901F9018951F920F920FB60F92112405
:100310008F93EF93FF935F9B11C0E0917000E831E2
:1003200048F481E08E0F809370008CB1F0E0E656C7
:10033000FF4F80831DBC1CBC85E08EBDFF91EF91FB
:100340008F910F900FBE0F901F9018951F920F92D4
:100350000FB60F9211242F933F934F935F936F9398
:100360007F938F939F93AF93BF93EF93FF938EB53C
:100370008A7F8EBD80917000882351F001D1109248
:100380007000109276001092750010927D00C39854
:10039000FF91EF91BF91AF919F918F917F916F915D
:1003A0005F914F913F912F910F900FBE0F901F9033
:1003B00018951F920F920FB60F9211242F933F930F
:1003C0004F935F936F937F938F939F9380917D0063
:1003D000811111C0C398409177005091780020910D
:1003E00073003091740081E0241735070CF080E031
:1003F00080937C0001C0C39A809173009091740037
:10040000909378008093770080917F009091800096
:100410006CE370E08FD125E0969587952A95E1F7FA
:1004200090937A00809379001092800010927F0060
:100430009F918F917F916F915F914F913F912F91FC
:100440000F900FBE0F901F9018951F920F920FB62E
:100450000F9211242F934F935F938F939F93EF935A
:10046000FF9326B3237080917E00409173005091DA
:100470007400E22FF0E0EE0FFF1FEE0FFF1FE80FFA
:10048000F11DE05AFF4F8081082E000C990B480F98
:10049000591F509374004093730040917500509120
:1004A0007600840F951F90937600809375002093BB
:1004B0007E0086B38770813049F480917F009091EF
:1004C000800001969093800080937F00809173005C
:1004D00090917400811590416CF48091730090911B
:1004E00074008130904F34F08091730090917400CB
:1004F000892B39F4109274001092730081E080937C
:100500007D00FF91EF919F918F915F914F912F917E
:100510000F900FBE0F901F901895DC01680F791F88
:100520009FEF4FEF2D919227292F30E0F901EA5DDF
:10053000FE4F94919427F901EA5DFF4F4491A6176D
:10054000B70781F7892F90E0942B0895CF93DF931D
:10055000C2E8D0E095E89883806889836A8363E085
:1005600070E0CE01DADF8B839C83809172008B5F19
:10057000809372008AB188628AB9DF91CF91089521
:10058000EF92FF920F931F93CF93DF9360917000D0
:10059000653008F4C8C000919A00053809F0C3C05E
:1005A00010919B00143009F0B5C0C091A100D0E0BB
:1005B000DC2FCC278091A000C82B70E0625071091D
:1005C0008AE990E0AADFC817D90709F09FC0809197
:1005D0009C0040919D0020919E0030E0322F222708
:1005E00090919F00292B2115310509F49CC050E002
:1005F000582B452B09F087C0C22FCC0F00938200E7
:1006000010938300C0938400B901660F771F40E008
:1006100050E02330310531F138F42130310571F0EB
:100620002230310571F03BC025303105A1F170F168
:1006300026303105A1F580917C002FC080917B0090
:100640002CC08091730090917400181619062CF438
:10065000809173009091740024C0809173009091F8
:10066000740010C0809175009091760018161906DC
:100670002CF4809175009091760013C080917500E4
:10068000909176009195819591090BC080917900A8
:1006900090917A0006C080917D0090E002C080E0D9
:1006A00090E0FA01E60FF71FEE57FF4F9183828328
:1006B00021503109425051092115310509F0A9CFC6
:1006C00090917B0081E0911180E080937B000C2F62
:1006D00010E0780183E0E80EF11CB70182E890E0B9
:1006E0001CDFF701EE57FF4F8083F801EE57FF4FF5
:1006F0009483809172008B5FC80FC09372008AB19F
:1007000088628AB910C062E084E006C063E080912C
:100710009B0002C061E0812FDF91CF911F910F916B
:10072000FF90EF9013CFDF91CF911F910F91FF902A
:10073000EF9008950024552704C0080E591F880F14
:10074000991F009729F076956795B8F37105B9F769
:0A075000802D952F0895F894FFCF37
:10075A0000FF0100010000FFFF0000010001FF008F
:00000001FF
