:1000000012C12AC129C128C1A5C126C125C17DC1EE
:100010004DC122C121C11CC21FC1D1C11DC11CC102
:100020001BC11AC119C100C0C101C30302C2C60667
:1000300007C705C5C404CC0C0DCD0FCFCE0E0ACA20
:10004000CB0BC90908C8D81819D91BDBDA1A1EDE70
:10005000DF1FDD1D1CDC14D4D515D71716D6D21220
:1000600013D311D1D010F03031F133F3F23236F630
:10007000F737F53534F43CFCFD3DFF3F3EFEFA3AE0
:100080003BFB39F9F83828E8E929EB2B2AEAEE2E70
:100090002FEF2DEDEC2CE42425E527E7E62622E2E0
:1000A000E323E12120E0A06061A163A3A26266A630
:1000B000A767A56564A46CACAD6DAF6F6EAEAA6AA0
:1000C0006BAB69A9A86878B8B979BB7B7ABABE7EF0
:1000D0007FBF7DBDBC7CB47475B577B7B67672B2A0
:1000E000B373B17170B05090915193535292965630
:1000F0005797559594549C5C5D9D5F9F9E5E5A9A60
:100100009B5B99595898884849894B8B8A4A4E8EEF
:100110008F4F8D4D4C8C448485458747468682425F
:1001200043834181804000C1814001C0804101C0C2
:10013000804100C1814001C0804100C1814000C1B7
:10014000814001C0804101C0804100C1814000C1A7
:10015000814001C0804100C1814001C0804101C097
:10016000804100C1814001C0804100C1814000C187
:10017000814001C0804100C1814001C0804101C077
:10018000804100C1814000C1814001C0804101C067
:10019000804100C1814001C0804100C1814000C157
:1001A000814001C0804101C0804100C1814000C147
:1001B000814001C0804100C1814001C0804101C037
:1001C000804100C1814000C1814001C0804101C027
:1001D000804100C1814001C0804100C1814000C117
:1001E000814001C0804100C1814001C0804101C007
:1001F000804100C1814001C0804100C1814000C1F7
:10020000814001C0804101C0804100C1814000C1E6
:10021000814001C0804100C1814001C0804101C0D6
:10022000804100C1814011241FBECFEDCDBF10E041
:10023000A0E6B0E0E8E6F7E002C005900D92A03736
:10024000B107D9F720E0A0E7B0E001C01D92A23BC2
:10025000B207E1F702D086C2D3CE12B88CE089B9DA
:100260008AB188698AB983B1866083B98DE090E0EC
:100270009BBD8ABD1FBC95E09EBD12BC1DBC1CBCB5
:1002800089B7806489BF89EF86BF10BE93BF12BE55
:1002900089B7816089BF8BB780628BBF80B587606B
:1002A00080BD88E187BB78940000FECF1F920F923B
:1002B0000FB60F9211248F939F93EF93FF93F894AF
:1002C0009091710080917200981309C08AB1877D66
:1002D0008AB9C49810927100109272000CC0C49A2E
:1002E000E091710081E08E0F80937100F0E0EE5795
:1002F000FF4F80818CB97894FF91EF919F918F91FE
:100300000F900FBE0F901F9018951F920F920FB66F
:100310000F9211248F93EF93FF93F8945F9B11C07A
:10032000E0917000E83148F481E08E0F8093700016
:100330008CB1F0E0E656FF4F80831DBC1CBC85E00D
:100340008EBD7894FF91EF918F910F900FBE0F901B
:100350001F9018951F920F920FB60F9211242F9392
:100360003F934F935F936F937F938F939F93AF933D
:10037000BF93EF93FF938EB58A7F8EBD80917000FF
:10038000882361F0F89410D11092700010927400DC
:100390001092730010927D007894C398FF91EF91B2
:1003A000BF91AF919F918F917F916F915F914F918D
:1003B0003F912F910F900FBE0F901F9018951F9295
:1003C0000F920FB60F9211242F933F934F935F9389
:1003D0006F937F938F939F9380917D0081110FC0C6
:1003E00040917500509176002091790030917A000B
:1003F00081E0241735070CF080E080937C00809129
:10040000790090917A0090937600809375008091A6
:100410007F00909180006CE370E093D125E0969589
:1004200087952A95E1F79093780080937700109252
:10043000800010927F009F918F917F916F915F91CB
:100440004F913F912F910F900FBE0F901F901895D5
:100450001F920F920FB60F9211242F933F934F9339
:100460005F938F939F93EF93FF938091810081110E
:100470005BC031E03093810026B3237080917E0011
:100480004091790050917A00E22FF0E0EE0FFF1FCB
:10049000EE0FFF1FE80FF11DE05AFF4F8081082E7D
:1004A000000C990B480F591F50937A004093790024
:1004B0004091730050917400840F951F90937400C5
:1004C0008093730020937E008091790090917A0050
:1004D000811590412CF010927A00109279000CC096
:1004E0008091790090917A0097FF08C08FEF9FE08C
:1004F00090937A008093790030937D0080917D0005
:10050000882311F0C39A01C0C39886B387708130E5
:1005100049F480917F009091800001969093800033
:1005200080937F0010928100FF91EF919F918F91B6
:100530005F914F913F912F910F900FBE0F901F90A1
:100540001895DC01680F791F9FEF4FEF2D919227CF
:10055000292F30E0F901EA5DFE4F94919427F901CB
:10056000EA5DFF4F4491A617B70781F7892F90E006
:10057000942B0895CF93DF93C2E8D0E095E8988359
:10058000806889836A8363E070E0CE01DADF8B8361
:100590009C83809172008B5F809372008AB1886225
:1005A0008AB9DF91CF910895EF92FF920F931F9335
:1005B000CF93DF9360917000653008F4BBC0009169
:1005C0009A00053809F0B6C010919B00143009F06C
:1005D000A8C0C091A100D0E0DC2FCC278091A00062
:1005E000C82B70E0625071098AE990E0AADFC81751
:1005F000D90709F092C080919C0040919D00209104
:100600009E0030E0322F222790919F00292B211548
:10061000310509F48FC050E0582B452B09F07AC002
:10062000C22FCC0F0093820010938300C0938400EC
:10063000B901660F771F40E050E023303105C9F063
:1006400058F42130310591F02230310579F580914F
:10065000790090917A002CC02530310519F1E8F02D
:100660002630310519F580917C001EC080917B00F9
:100670001BC08091730090917400181619062CF419
:10068000809173009091740013C0809173009091D9
:1006900074009195819591090BC08091770090919C
:1006A000780006C080917D0090E002C080E090E07C
:1006B000FA01E60FF71FEE57FF4F91838283215017
:1006C0003109425051092115310509F0B6CF9091F9
:1006D0007B0081E0911180E080937B000C2F10E083
:1006E000780183E0E80EF11CB70182E890E029DF91
:1006F000F701EE57FF4F8083F801EE57FF4F9483C9
:10070000809172008B5FC80FC09372008AB18862BB
:100710008AB910C062E084E006C063E080919B006B
:1007200002C061E0812FDF91CF911F910F91FF9067
:10073000EF9020CFDF91CF911F910F91FF90EF901D
:1007400008950024552704C0080E591F880F991FCB
:10075000009729F076956795B8F37105B9F7802D64
:08076000952F0895F894FFCFD6
:1007680000FF0100010000FFFF0000010001FF0081
:00000001FF
