:1000000012C12AC129C128C1A4C126C125C17EC1EE
:1000100050C122C121C126C21FC1D9C11DC11CC1ED
:100020001BC11AC119C100C0C101C30302C2C60667
:1000300007C705C5C404CC0C0DCD0FCFCE0E0ACA20
:10004000CB0BC90908C8D81819D91BDBDA1A1EDE70
:10005000DF1FDD1D1CDC14D4D515D71716D6D21220
:1000600013D311D1D010F03031F133F3F23236F630
:10007000F737F53534F43CFCFD3DFF3F3EFEFA3AE0
:100080003BFB39F9F83828E8E929EB2B2AEAEE2E70
:100090002FEF2DEDEC2CE42425E527E7E62622E2E0
:1000A000E323E12120E0A06061A163A3A26266A630
:1000B000A767A56564A46CACAD6DAF6F6EAEAA6AA0
:1000C0006BAB69A9A86878B8B979BB7B7ABABE7EF0
:1000D0007FBF7DBDBC7CB47475B577B7B67672B2A0
:1000E000B373B17170B05090915193535292965630
:1000F0005797559594549C5C5D9D5F9F9E5E5A9A60
:100100009B5B99595898884849894B8B8A4A4E8EEF
:100110008F4F8D4D4C8C448485458747468682425F
:1001200043834181804000C1814001C0804101C0C2
:10013000804100C1814001C0804100C1814000C1B7
:10014000814001C0804101C0804100C1814000C1A7
:10015000814001C0804100C1814001C0804101C097
:10016000804100C1814001C0804100C1814000C187
:10017000814001C0804100C1814001C0804101C077
:10018000804100C1814000C1814001C0804101C067
:10019000804100C1814001C0804100C1814000C157
:1001A000814001C0804101C0804100C1814000C147
:1001B000814001C0804100C1814001C0804101C037
:1001C000804100C1814000C1814001C0804101C027
:1001D000804100C1814001C0804100C1814000C117
:1001E000814001C0804100C1814001C0804101C007
:1001F000804100C1814001C0804100C1814000C1F7
:10020000814001C0804101C0804100C1814000C1E6
:10021000814001C0804100C1814001C0804101C0D6
:10022000804100C1814011241FBECFEDCDBF10E041
:10023000A0E6B0E0E2E5F7E002C005900D92A0373D
:10024000B107D9F720E0A0E7B0E001C01D92AE3AB7
:10025000B207E1F702D07BC2D3CE12B889E189B9E7
:100260008AB188698AB983B1866083B98BE190E0ED
:100270009BBD8ABD1FBC95E09EBD12BC1DBC1CBCB5
:1002800089B7806489BF8AEF86BF10BE93BF12BE54
:1002900089B7816089BF8BB780628BBF80B587606B
:1002A00080BD88E187BB80B3109273007894000012
:1002B000FECF1F920F920FB60F9211248F939F9330
:1002C000EF93FF939091710080917200981309C091
:1002D0008AB1877D8AB9C498109271001092720019
:1002E0000CC0C49AE091710081E08E0F8093710080
:1002F000F0E0EA57FF4F80818CB9FF91EF919F9119
:100300008F910F900FBE0F901F9018951F920F9214
:100310000FB60F9211248F93EF93FF935F9B11C041
:10032000E0917000E43148F481E08E0F809370001A
:100330008CB1F0E0E656FF4F80831DBC1CBC85E00D
:100340008EBDFF91EF918F910F900FBE0F901F9078
:1003500018951F920F920FB60F9211242F933F936F
:100360004F935F936F937F938F939F93AF93BF93BD
:10037000EF93FF938EB58A7F8EBD809170008823A6
:10038000A9F08091820090918300892B09F0C39A93
:1003900000D1882359F01092700010927F001092C3
:1003A0007E001092830010928200C398FF91EF911B
:1003B000BF91AF919F918F917F916F915F914F917D
:1003C0003F912F910F900FBE0F901F9018951F9285
:1003D0000F920FB60F9211242F933F934F935F9379
:1003E0006F937F938F939F9320918200309183002E
:1003F00080917C0090917D00232B79F421E030E006
:1004000040917500509176008417950714F020E014
:1004100030E03093850020938400909376008093A1
:10042000750080917700909178006CE370E07ED148
:1004300024E0969587952A95E1F790938100809323
:10044000800010927800109277009F918F917F9199
:100450006F915F914F913F912F910F900FBE0F9031
:100460001F9018951F920F920FB60F9211242F9381
:100470003F934F936F937F938F939F93EF93FF934C
:1004800046B34370E0917400F0E0EE0FFF1FEE0FF3
:10049000FF1FE40FF11DE05AFF4F8081082E000C72
:1004A000990B20917C0030917D00280F391F3093EB
:1004B0007D0020937C0060917E0070917F00860F0C
:1004C000971F90937F0080937E004093740086B3C3
:1004D0008770813049F4809177009091780001967F
:1004E0009093780080937700C9018150904F8F3F9F
:1004F0009F4110F4232B51F410927D0010927C0048
:1005000081E090E09093830080938200FF91EF91CF
:100510009F918F917F916F914F913F912F910F906C
:100520000FBE0F901F901895DC01680F791F9FEF89
:100530004FEF2D919227292F30E0F901EA5DFE4F10
:1005400094919427F901EA5DFF4F4491A617B707EC
:1005500081F7892F90E0942B0895CF93DF93C6E81D
:10056000D0E0909173009B579883806889836A8359
:1005700063E070E0CE01D8DF8B839C8380917200B2
:100580008B5F809372008AB188628AB9DF91CF91C4
:100590000895EF92FF920F931F93CF93DF93609193
:1005A0007000683008F4BAC020919A0030E0809161
:1005B000730090E08B579F4F2817390709F0AEC0A2
:1005C00010919B00143009F07EC0C091A100D0E0D2
:1005D000DC2FCC278091A000C82B70E062507109FD
:1005E0008AE990E0A1DFC817D90709F090C090917F
:1005F0009C0040919D0020919E0030E0322F2227E8
:1006000080919F00282BB9016150710966307105F6
:1006100008F084C0C22FCC0F809173008B57809359
:10062000860010938700C093880050E0592B452B1B
:1006300009F06AC0B901660F771F80E090E0215091
:100640003109F901EE0FFF1FE658FF4F408151813C
:1006500057FF03C0519541955109FC01E60FF71F63
:10066000EA57FF4F5183428302972115310539F72D
:1006700020917A0030917B0081E090E0232B11F0F3
:1006800080E090E090937B0080937A000C2F10E044
:10069000780183E0E80EF11CB70186E890E044DFC2
:1006A000F701EA57FF4F8083F801EA57FF4F948321
:1006B000809172008B5F8C0F809372008AB1886288
:1006C0008AB981E02CC0163031F5E0919E00F0E04F
:1006D000FE2FEE2780919F00E82BCF010197069710
:1006E000E8F4EE0FF0E0E656FF4FC581D0E0DC2FD6
:1006F000CC278481C82B70E0625071098AE990E0B0
:1007000013DFC817D90751F462E084E006C063E044
:1007100080919B0002C061E0812F1FDF80E0DF91AC
:10072000CF911F910F91FF90EF90089500245527CE
:1007300004C0080E591F880F991F009729F076955D
:100740006795B8F37105B9F7802D952F0895F89442
:02075000FFCFD9
:1007520000FF0100010000FFFF0000010001FF0097
:00000001FF
